:0400000080311B2808
:100008007E1480314E010C1C0A280B281928400147
:1000180018100130F4070030F53D7708023EF7006C
:100028000030783DF8004E010C107E100900803138
:100038001D28803192208031F70080319320803153
:10004800F800F401F501F6017E10400180312C28FA
:1000580040018C0198017E01B801043040019200F2
:1000680001304E01960002307D0190004E010C10C7
:1000780090308B0040011810640040010C1D452889
:1000880046287A28003075020530031974020318CF
:100098004E284F285D2877087804031954285528D6
:1000A8005A280130F7020030F83B7B281814630007
:1000B8007B28F101F2016400A330F0005530890B70
:1000C8006328F00B632800000130F1070030F23D8F
:1000D80001307202E03003197102031C742875287C
:1000E8005F280130F4020030F53B7B281810F3013B
:1000F8006400A330F0005530890B8028F00B80286D
:1001080000000130F0007008F30778307302031C18
:100118008E288F287C28412880311B280134003400
:020000040001F9
:08000000FF3FFF3FFF3FFF3F00
:0A000E00ED3FBF3FFF3FFF3FFF3F04
:00000001FF
